:020000040800F2
:10000000A00600202902000831020008330200087F
:10001000350200083702000839020008000000001D
:100020000000000000000000000000003B0200088B
:100030003D020008000000003F0200080103000824
:10004000430200084302000843020008430200087C
:10005000430200084302000843020008430200086C
:10006000430200084302000843020008430200085C
:10007000430200084302000843020008430200084C
:10008000430200084302000843020008430200083C
:10009000430200084302000843020008430200082C
:1000A000430200084302000843020008430200081C
:1000B000430200084302000843020008430200080C
:1000C00043020008430200084302000843020008FC
:1000D00043020008430200084302000843020008EC
:1000E00043020008430200084302000843020008DC
:1000F00043020008430200084302000843020008CC
:1001000043020008430200084302000843020008BB
:1001100043020008430200084302000843020008AB
:10012000430200084302000843020008430200089B
:10013000430200084302000843020008430200088B
:10014000430200084302000843020008430200087B
:10015000430200084302000843020008430200086B
:10016000430200084302000843020008430200085B
:100170004302000843020008430200080000000098
:10018000430200084302000800F002F800F03CF8C7
:100190000AA090E8000C82448344AAF10107DA45E2
:1001A00001D100F031F8AFF2090EBAE80F0013F0F8
:1001B000010F18BFFB1A43F001031847A8070000FE
:1001C000C8070000103A24BF78C878C1FAD852078F
:1001D00024BF30C830C144BF04680C6070470000C1
:1001E0000023002400250026103A28BF78C1FBD840
:1001F000520728BF30C148BF0B6070471FB500F0E1
:100200009CFB1FBD10B510BD00F031F81146FFF783
:10021000F5FF00F051F900F04FF803B4FFF7F2FFDB
:1002200003BC00F057F80000094880470948004720
:10023000FEE7FEE7FEE7FEE7FEE7FEE7FEE7FEE796
:10024000FEE7FEE704480549054A064B70470000F3
:100250009103000889010008A0000020A0060020EA
:10026000A0020020A002002070477047704775462A
:1002700000F02CF8AE4605006946534620F0070012
:10028000854618B020B5FFF7DDFFBDE820404FF0F0
:1002900000064FF000074FF000084FF0000BAC468F
:1002A000ACE8C009ACE8C009ACE8C009ACE8C009DA
:1002B00021F007018D46704710B50446AFF300806A
:1002C0002046BDE81040FFF7A8BF00000048704777
:1002D0001800002001491820ABBEFEE726000200EE
:1002E00070470000002808BF7047002147F24812FD
:1002F000013A00BFFCD101318142F7D170470000C3
:1003000040F29000C2F200000168013101607047C4
:1003100043F60400C4F20200416801F00C0242F20C
:100320000041082AC0F2F40106D0042A1DD147F684
:100330004001C0F27D1118E002680368520247F6DE
:100340004002C0F27D1258BF0A46016803F03F0325
:10035000B2FBF3F2C1F3881103685143C3F30142C6
:10036000022303EB4202B1FBF2F140F20002C2F2BF
:1003700000021160406840F65411C0F30310C0F64B
:100380000001085C116821FA00F01060704700005D
:100390004EF68850CEF20000016841F47001016011
:1003A0007047000070B54CF6CD4CCCF6CC4CA0FBA1
:1003B0000C2348F21F52C5F2EB12A0FB0221DA080F
:1003C00002EB820E4B09642203FB1202A0EB4E04E7
:1003D000D0B2A0FB0C05302606EB5110C0B200F0E5
:1003E00033F846EAD50000F02FF844F03000C0B2F0
:1003F000BDE8704000F028B8002100BF0131082995
:100400004FEA4000FAD310B540F21841C4F202019D
:100410004FF400320A6040F28401C2F2000141F25E
:1004200014040860C4F202042168C9B22160216882
:1004300008432060802060600A20FFF753FF4FF4DC
:100440000000606010BD0000002100BF01310829DC
:100450004FEA4000FAD310B540F21841C4F202014D
:1004600002220A6040F28401C2F2000141F2140447
:100470000860C4F202042168C9B2216021680843FF
:100480002060802060600A20FFF72CFF4FF40000FE
:10049000606010BD80B50A20FFF724FF3820FFF709
:1004A000ABFF0C20FFF7A8FF0120FFF7A5FF0A20F4
:1004B000BDE88040FFF716BF2DE9F04F81B02DED6C
:1004C0000E8BFFF725FF43F63000C4F202000168EF
:1004D000002441F0010101600021C4F202010C601E
:1004E0004C608C60CC60026842F0020202600268DC
:1004F00042F0100202600520C1F8000440F20440FE
:1005000041F20001C4F20200C4F202014FF0553280
:100510000460446084600A604C608C60CC604FF47E
:1005200080314161FFF7B6FF40F27805C2F2000565
:1005300095ED000AB3EE088AB4EEC80AF1EE10FA9F
:1005400000F3EB8140F2880740F210069FEDF6AA17
:1005500040F28C0840F27C0940F20C0B40F2940A05
:10056000B7EE009AC2F20007C2F20006C2F200081B
:10057000C2F20009C2F2000BC2F2000AB3EE09BADD
:10058000B1EE08CAB3EE04DAB2EE08EA08E000BF42
:1005900095ED000AB4EEC80AF1EE10FA00F3BD8141
:1005A0008020FFF729FF4920FFF74EFF4E20FFF77D
:1005B0004BFF4820FFF748FF4120FFF745FF4C2045
:1005C000FFF742FF4520FFF73FFF3D20FFF73CFFCD
:1005D00000F0ACF995ED000A40F29801C2F200017A
:1005E00030EE090A0128086085ED000A1AD140F2B0
:1005F0000400C2F2000097ED001A006831EE091AFB
:10060000012887ED001A29D14FF07C50306040F26C
:100610000400C2F20000046040F20800C2F20000D0
:100620001AE000BF40F20800C2F2000098ED001A84
:10063000006831EE091A012888ED001A0ED14FF03A
:100640007C50CBF8000040F20800C2F200000460C9
:1006500040F20400C2F200000121016098ED001A8E
:1006600097ED002A81EE001A82EE000A9BED002A27
:1006700040F28000C2F20000CBF8004021EE0A1ADE
:1006800089ED001A96ED001A20EE0A0A31EE021AE0
:100690009AED002A80ED000A31EE021A8AED001A66
:1006A0003460BCEEC00A10EE100AFFF77BFE20207B
:1006B000FFF7CAFE5220FFF7C7FE3D20FFF7C4FE3A
:1006C0009AED000ABCEEC00A10EE100AFFF76AFEAF
:1006D000C020FFF791FE4520FFF7B6FE5820FFF738
:1006E000B3FE4820FFF7B0FE4120FFF7ADFE4C20DF
:1006F000FFF7AAFE4520FFF7A7FE3D20FFF7A4FE67
:1007000099ED000ABCEEC00A10EE100AFFF74AFE8F
:100710002020FFF799FE5420FFF796FE3D20FFF7BB
:1007200093FE95ED000ABCEEC00A10EE100AFFF72A
:1007300039FE95ED000AB4EE4B0AF1EE10FA7FF4A3
:1007400029AF9AED000AB4EECC0AF1EE10FA42DAC3
:10075000FFF7A0FE8020FFF74FFE4220FFF774FE58
:100760005220FFF771FE4520FFF76EFE5420FFF781
:100770006BFE4820FFF768FE4520FFF765FE20204E
:10078000FFF762FE5220FFF75FFE4120FFF75CFE9D
:100790005420FFF759FE4520FFF756FE2020FFF7B3
:1007A00053FEC020FFF728FE4920FFF74DFE5320DF
:1007B000FFF74AFE2020FFF747FE4C20FFF744FEDC
:1007C0004F20FFF741FE5720FFF73EFE0A20FFF7BC
:1007D00089FD9AED000AB4EECD0AF1EE10FA43DB82
:1007E000FFF758FE8020FFF707FE4220FFF72CFEA0
:1007F0005220FFF729FE4520FFF726FE5420FFF781
:1008000023FE4820FFF720FE4520FFF71DFE202095
:10081000FFF71AFE5220FFF717FE4120FFF714FEE4
:100820005420FFF711FE4520FFF70EFE2020FFF7B2
:100830000BFEC020FFF7E0FD4920FFF705FE532027
:10084000FFF702FE2020FFF7FFFD4820FFF7FCFD29
:100850004920FFF7F9FD4720FFF7F6FD4820FFF795
:10086000F3FD0A20FFF73EFD9AED000AB4EECC0A34
:10087000F1EE10FAFFF68CAEB4EECE0AF1EE10FAFD
:100880003FF786AEFFF706FE8020FFF7B5FD42205A
:10089000FFF7DAFD5220FFF7D7FD4520FFF7D4FD23
:1008A0005420FFF7D1FD4820FFF7CEFD4520FFF78C
:1008B000CBFD2020FFF7C8FD5220FFF7C5FD4120EA
:1008C000FFF7C2FD5420FFF7BFFD4520FFF7BCFD39
:1008D0002020FFF7B9FDC020FFF78EFD4920FFF76C
:1008E000B3FD5320FFF7B0FD2020FFF7ADFD4E20F4
:1008F000FFF7AAFD4F20FFF7A7FD5220FFF7A4FD49
:100900004D20FFF7A1FD4120FFF79EFD4C20FFF792
:100910009BFD0A20FFF7E6FC3AE60020BDEC0E8BBB
:1009200001B0BDE8F08F00BF0000C8421020C4F243
:100930000200006800F001007047F1EE100A4FF667
:10094000FF71C0F2C03120EA010040F04070E1EEDA
:10095000100A7047000000000000000001020304BC
:1009600006070809840900080000002014000000A0
:10097000C40100089809000818000020880600003B
:10098000E00100080024F400010000000100000064
:080990000000003F0000003FE1
:0400000508000229C4
:00000001FF
